:100000004AC1000066C1000064C1000062C1000076
:1000100060C100005EC100005CC1000010C20000B1
:1000200058C1000056C1000054C1000052C1000078
:1000300050C100004EC100004CC100004AC1000088
:1000400048C1000046C10000B2C1000042C100002A
:1000500040C100003EC100003CC100003AC10000A8
:1000600038C1000036C100000C944B010C946901AA
:100070000C9469010C9469010C9469010C94690158
:100080000C9469010C941F020C9469010C94690191
:100090000C9469010C9469010C9469010C94690138
:1000A0000C9469010C9469010C9469010C94690128
:1000B0000C94D7010C9469010C9469010C946901AA
:1000C0000C9469010C9469010C9469010C94690108
:1000D0000000000000000000434F4E534F4C45000D
:1000E000000013071307130713071307110713075C
:1000F00013071107000011070001000000010000B4
:10010000004E554C4C44455600000013071307138E
:10011000071307130711071307130711070000112F
:10012000070002000000000000004E414D45535002
:10013000414345009A0C450E11071107110711079D
:1001400011071107110700001107006E616D696E3C
:100150006974202864657669636573293A0D0A001D
:100160004552524F522047455453544B2025730A51
:10017000006E616D6573706163653A2064657669D0
:100180006365206E616D6520257320746F6F206C30
:100190006F6E670D0A006E616D6573706163653A1D
:1001A0002063616E6E6F74206D6F756E74202564B0
:1001B0000D0A000A0A416C6C20757365722070721A
:1001C0006F636573736573206861766520636F6D17
:1001D000706C657465642E0A0A000A57656C636F5B
:1001E0006D6520746F2058696E75210A0A0D0958D3
:1001F000696E75204F5320436F7079726967687418
:100200002028632920323031322C20323031350A17
:100210000D09446F75676C617320452E20436F6D27
:10022000657220616E64204352432050726573737F
:100230002C20496E632E0A0A0D0958696E75204FED
:100240005320666F72204156522061746D6567615C
:10025000333238702076302E312028632920323016
:1002600032300A0D0952616661656C2049676E6122
:1002700063696F205A7572697461203C72616661AE
:100280004066692E756E636F6D612E6564752E61B3
:10029000723E0A0A0D0011241FBECFEFD8E0DEBF68
:1002A000CDBF11E0A0E0B1E0E6EDF5E202C00590BF
:1002B0000D92AA34B107D9F724E0AAE4B1E001C055
:1002C0001D92A538B207E1F70C94FD050E94F30ECC
:1002D000E5C296CEFF93EF93FC0100820FB6F8942F
:1002E00004A21182228233824482558266827782FE
:1002F00080869186A286B386C486D586E686F786F2
:10030000008B118B228B338B448B558B668B778BB9
:10031000808F918FA28FB38FC48FD58F0F90068E51
:100320000F90078E0DB600A20EB601A2FB0100A031
:100330000DBE01A00EBE078C0F92068C0F92D58DBC
:10034000C48DB38DA28D918D808D778966895589F5
:1003500044893389228911890089F784E684D58408
:10036000C484B384A284918480847780668055801D
:10037000448033802280118004A00FBE0080EF9162
:10038000FF910895E0910001F0910101158287E647
:10039000848386E0828388E181830895E09100016F
:1003A000F0910101908195FFFDCF868308958F9391
:1003B0008091C60080934A018F911895A4E0B0E027
:1003C000E4EEF1E00C94C90F19821A821B821C82A0
:1003D00019821A821B821C8229813A814B815C819D
:1003E000261737074807590720F02496E2E00C94B7
:1003F000E50F000029813A814B815C812F5F3F4FDF
:100400004F4F5F4F29833A834B835C83E5CF80E274
:1004100084B92D9A60E47DE083E090E0CFDF2D98F1
:1004200060E47DE083E090E0C9CF10924B01109230
:100430004C0110924D0110924E0181E008951F92DF
:100440000F920FB60F9211242F933F934F935F9308
:100450006F937F938F939F93AF93BF93EF93FF938C
:100460008091550190915601A0915701B09158018A
:100470000196A11DB11D8093550190935601A09343
:100480005701B0935801883E9340A105B105D8F0BB
:100490008091590190915A01A0915B01B0915C014A
:1004A0000196A11DB11D8093590190935A01A0930B
:1004B0005B01B0935C0110925501109256011092AD
:1004C000570110925801809153019091540126E0F8
:1004D000289FF001299FF00D1124EE58FC4F8281D6
:1004E00093818530910584F4289FF001299FF00DB8
:1004F0001124EE58FC4F8081918101978083918374
:10050000892B11F40E94C80B80914F0190915001EA
:10051000A0915101B09152010197A040B040C9F0A3
:1005200080934F0190935001A0935101B0935201D9
:10053000FF91EF91BF91AF919F918F917F916F91BB
:100540005F914F913F912F910F900FBE0F901F9091
:100550001895A9D6EDCFADD5809353019093540152
:1005600081E080934F01109250011092510110923E
:1005700052011092590110925A0110925B0110928F
:100580005C01109255011092560110925701109281
:100590005801E0910401F09105011082118212824C
:1005A000E0910201F09103011082E0910401F091C9
:1005B000050182E0808395E091839DE79383E0913C
:1005C0000201F091030180830895A5E0B0E0EBEE15
:1005D000F2E00C94C90F69837A838B839C8319D4CE
:1005E0008D8389819A81AB81BC810397A105B10577
:1005F00048F08D8111D49FEF998389812596E2E09F
:100600000C94E50F29E2A981BA812A9FC0012B9F92
:10061000900D1124FC01EA51FF4F0590F491E02D5B
:1006200080539F4F099589838D81F6D3E6CFA5E04E
:10063000B0E0EDE1F3E00C94B90F2A8C7B8C0C8DCB
:100640001D8D68A039A0E5D38D83C8018034910544
:1006500014F480E490E003968C7F9C01990F440B86
:10066000542F29833A834B834C83B901CA011BD28F
:100670008C01019681F480E691E00E94F80B8D8157
:10068000CBD35FEFF52EEF2C6701B601C70125969E
:10069000E2E10C94D50F60915D0170915E01809153
:1006A0005F0190916001412C512C520145E0842E54
:1006B000912C9401A5010E949D0F6B017C016F5F3D
:1006C0007F4F8F4F9F4F4BE54C9DF0014D9DF00D9F
:1006D0001124E955FE4F20813181232B59F05FEF22
:1006E000451A550AA5E04A16510419F73FEFF32EB3
:1006F000EF2C670160935D0170935E0180935F0151
:1007000090936001BFEFCB16DC04EC04FC0409F409
:10071000B2CFEE8DFF8D1E161F060CF0ACCF809170
:10072000650190916601A0916701B0916801019601
:10073000A11DB11D8093650190936601A09367018F
:10074000B09368018BE58C9D50018D9DB00C1124F8
:10075000F501E955FE4F85E0808311822E8D3F8D96
:100760002283338300AF11AF89819A81AB81BC8131
:1007700082AF93AFA4AFB5AFEB5BFF4F1082E62D16
:10078000F32DD501AB51BE4FCF01079620812C939D
:10079000211529F031961196E817F907B9F72BE5DD
:1007A0002C9DC0012D9D900D1124DC01A955BE4F3B
:1007B0004D0183519E4F2FEF3FEFFC01208331838A
:1007C00069D1F401E85BFF4F608371838283938377
:1007D00038961192119211921192119210821182F7
:1007E0008AEAD8018C938AA19BA1F40182A793A7DE
:1007F000F501E555FE4F20E030E011922F5F3F4FAD
:1008000026323105D1F72BE52C9DF0012D9DF00D01
:100810001124E955FE4F24AA75AA26A277A220E842
:1008200020A7D501AD52BE4FFE01B49620E030E0C6
:10083000281739073CF1DC015696AA0FBB1F2BE5A0
:100840002C9DF0012D9DF00D1124AE0FBF1FA95559
:10085000BE4F1D921D92E955FE4F848F958FC501A5
:100860008D529E4F828F938F89E79BE0D8018E93A4
:100870009E932E927E920550110904A315A38D819B
:10088000CBD203CF419151914D935D932F5F3F4F59
:10089000CFCF61E070E080E090E00895FBD0C5C26A
:1008A000A0E0B0E0E6E5F4E00C94BB0FEC016A01D7
:1008B0007B01AFD2C114D104E104F104A1F0209175
:1008C000700330917103C217D30768F020916E0353
:1008D00030916F03E0916901F0916A01A9E6B1E0FE
:1008E0002C173D0760F498D28FEFCDB7DEB7E0E16B
:1008F0000C94D70F20819181DF01E22FF92F3097DF
:1009000019F0EC17FD07B0F34E01AD2EAA0CAA08A2
:10091000BA2C91E0A936B90709F478C012960D9166
:100920001D912D913D9116970B2E000C00080A0F7A
:100930001B1F201D301D80169106A206B30698F2DB
:1009400097E0C90ED11CA601487F652F660F660B84
:10095000762F2F016F2E660C6608762C309761F08B
:100960006A017B01C80CD91CEA1CFB1C4C145D04F9
:100970006E047F0408F4B7CFC0906B01D0906C0177
:10098000E0906D01F0906E01C40ED51EE61EF71EBC
:10099000C0926B01D0926C01E0926D01F0926E01F9
:1009A000081519052A053B05A9F512960D911D910B
:1009B0002D913D91400F511F621F731F7E936E93C7
:1009C0005E934E9312978A019B010B2E000C000838
:1009D0000A0F1B1F201D301D0415150526053705A0
:1009E00091F40281138124813581400F511F621FD0
:1009F000731F12964D935D936D937D93169720818F
:100A000031812D933D9308D281E06FCF20E030E01B
:100A1000890196CFE883F9834A835B836C837D8366
:100A2000CD93DD93DE01CFCF46E0469FF001479F97
:100A3000F00D1124EE58FC4FA281B3812481358141
:100A4000429FF001439FF00D1124EE58FC4FA2830A
:100A5000B3834A9FF0014B9FF00D1124EE58FC4FD9
:100A600024833583089546E0489F9001499F300DC7
:100A700011242E583C4FF901628173816530710554
:100A80002CF4872F880F880B982FCECF6FEF7FEF36
:100A9000CB010895609161017091620180916301C1
:100AA000909164010895CF92DF92EF92FF920F939D
:100AB0001F936B017C01ADD1C114D104E104F10499
:100AC000B9F097E0C90ED11CE8EFCE22ED2CEE0C68
:100AD000EE08FE2CE0916901F0916A01A0E0B0E01F
:100AE0008D0129E631E0309769F401151105E9F42B
:100AF00093D18FEF9FEF1F910F91FF90EF90DF90B9
:100B0000CF90089542815381648175814C155D05B4
:100B10006E057F0540F49D0140819181D9019F01BF
:100B2000E42FF92FE0CF8F01F7CFF80142815381F5
:100B3000648175814C155D056E057F0509F5208181
:100B400031812D933D9340916B0150916C016091E7
:100B50006D0170916E014C195D096E097F0940931A
:100B60006B0150936C0160936D0170936E0154D1D1
:100B7000C601D7010497A109B109800F911FBBCF0E
:100B80004C195D096E097F09428353836483758321
:100B9000040F151FD8CFA5E0B0E0E1EDF5E00C940F
:100BA000C90F69837A838B839C8333D18D83898139
:100BB0009A81AB81BC810397A105B10548F08D8175
:100BC0002BD19FEF998389812596E2E00C94E50F64
:100BD00029E2A981BA812A9FC0012B9F900D11247F
:100BE000FC01EE51FF4F0590F491E02D80539F4F93
:100BF000099589838D8110D1E6CFC5D28AE091E035
:100C00009F938F93FAD18AED91E0F2D525D210927D
:100C100065011092660110926701109268011092AE
:100C20000A0410920B0410920C0410920D04E7EACF
:100C3000F1E00F900F901082118216AE10AE11AE3F
:100C400012821382E55AFF4F83E0EE36F80799F7D8
:100C5000CFE6D1E0188219821A821B821C8229D227
:100C60008D839E83279691E0C73AD90799F7DDDBFC
:100C700020D28093080490930904E12CF12C6701A1
:100C8000B601C70188DFEFEFCE1ADE0AEE0AFE0AD0
:100C9000F3E0CF16D104E104F10491F75CDCE091BC
:100CA0006901F0916A01A0E0B0E0CD01309709F050
:100CB00045C0BF93AF939F938F9388E191E09F933B
:100CC0008F939BD11F921F921F921F928EE291E0F1
:100CD0009F938F931F928AE08F931F9280E48F934C
:100CE0001F921F92A4DC2BE5269FA001279F500D89
:100CF0001124CA0189559E4F21E0FC0120831182F5
:100D00008DD01F921F921F921F9284E391E09F93B8
:100D10008F931F9284E18F9381E08F931F9283EFD3
:100D20009EE09F938F9383DC87D38DB79EB74E96BB
:100D30000FB6F8949EBF0FBE8DBFFFCF4281538187
:100D400064817581840F951FA61FB71F0190F081E4
:100D5000E02DACCF0F931F93CF93DF93FA0135971C
:100D6000739708F054C0653071058105910508F04E
:100D70004EC03BE5369FF001379FF00D1124E95539
:100D8000FE4F0190F081E02DEF2B09F440C036E0DA
:100D9000349FF001359FF00D1124EE58FC4FC281B5
:100DA000D381322F330F330B46E04C9FF0014D9F20
:100DB000F00D1124EE58FC4FA081B181A217B307AA
:100DC00018F504811581469FD001479FB00D11246D
:100DD000AE58BC4F1296CD93DD930D931D9316978D
:100DE0002D933D93409FD001419FB00D1124AE58EB
:100DF000BC4F12966D937D936483758381E0DF9180
:100E0000CF911F910F910895C281D381CECF8FEFE3
:100E1000F6CF8FB7F89408958FBF0895789408950A
:100E2000FFCF8FEF089581E00895A3E0B0E0EBE1FC
:100E3000F7E00C94C30F6B017C01EBDF898325E0A5
:100E4000C216D104E104F10408F08EC08BE58C9D3C
:100E5000F0018D9DF00D1124E955FE4F80819181A7
:100E6000892B09F481C0C114D104E104F10409F40F
:100E70007BC08091650190916601A0916701B0915E
:100E800068010197A109B1098093650190936601FA
:100E9000A0936701B09368010297A105B1050CF416
:100EA000A3D48BE58C9DF0018D9DF00D1124EA8378
:100EB000FB83E151FE4F60817181828193819601B4
:100EC000A7013CD32A813B8128503E4F2A833B8394
:100ED00000E010E0EA81FB8161917191EA83FB837C
:100EE000872F880F880B982F70DB0F5F1F4F033001
:100EF000110581F78BE58C9D90018D9D300D11249E
:100F000029553E4F2A833B83F90142AD53AD64AD71
:100F100075AD495F5F4F487F652F660F660B762F73
:100F200080AD91AD0496A11DB11D841B950BB8DC5D
:100F3000EA81FB81808191818430910509F1D8F4A7
:100F40008130910509F1029709F43EC08BE58C9D33
:100F5000F0018D9DF00D1124E955FE4F1082118294
:100F600089815ADF81E003C0898156DF8FEF2396A4
:100F7000E8E00C94DF0F8630910561F0079731F7B8
:100F8000B601C70162D3E2CFEA81FB8110821182F0
:100F90008AD1F6CF2A813B812A5B3F4FF9018081BC
:100FA000918127E0289FF001299FF00D1124E1593C
:100FB000FE4F81819281A381B4810196A11DB11D53
:100FC00081839283A383B483B601C7012DDDBECF95
:100FD000A2E0B0E0EDEEF7E0DCC789831ADF8A8398
:100FE00089818A3011F48DE0D9D98981D7D98A8154
:100FF00013DF81E02296E2E0E8C7A1E5B0E0E2E09D
:10100000F8E0C5C78E01085A1F4FF80181919191F0
:101010008F0140E050E09D01BA01CE0101960E948F
:10102000351098016A964EAD5FAD6A9760E570E045
:10103000CE0101960E943C108E010F5F1F4FF801F8
:101040008081811105C081E0CF5ADF4FE4E0BBC74A
:101050000F5F1F4FBDDFF3CF85E894E0A0E8BB270B
:101060000196FC0180937003909371032FEE38E09A
:1010700020936E0330936F038093690190936A010C
:101080001082118260E070E0A901092E000C0008B6
:10109000481B590B6009700942835383648375832D
:1010A00040936B0150936C0160936D0170936E01DE
:1010B000089580910601909107018931910544F5C9
:1010C0009C012E5F3F4F2093060130930701AC0136
:1010D0004F5F5F4F66E0689FF001699FF00D11243C
:1010E000EE58FC4F428353832FEF3FEF2483358329
:1010F00020833183649FF001659FF00D1124EE5829
:10110000FC4F228333838483958310821182089558
:101110008FEF9FEF0895A9E0B0E0E0E9F8E039C76C
:1011200069837A838B839C83488759872E833F8387
:1011300070DE8D8389819A81AB81BC810397A10583
:10114000B10540F08D8168DE9FEF998389812996F2
:10115000E2E03BC729E2A981BA812A9FC0012B9F07
:10116000900D1124FC01EC51FF4F0590F491E02DFE
:101170004E815F816885798580539F4F099589836A
:101180008D814ADEE3CFF89442D941D9FBD881CB97
:10119000CF93DF939A012550310923313105C0F5F2
:1011A000653071058105910598F52BE5269FF001C5
:1011B000279FF00D1124E955FE4F20813181232B0B
:1011C00039F14F5F5F4F26E0249FF001259FF00D1E
:1011D0001124EE58FC4FC481D581269FD001279F52
:1011E000B00D1124AE58BC4F12964D935D93CD9324
:1011F000DD932C9FD0012D9FB00D1124AE58BC4F14
:1012000012966D937D9364837583DF91CF910895DA
:101210008FEF9FEFBC01F9CFCF939C01255031098F
:1012200023313105E8F4C6E0C89FF001C99FF00DF5
:101230001124EE58FC4F228133812530310584F48E
:1012400012DCC69FF001C79FF00D1124EE58FC4F31
:101250002FEF3FEF2483358322833383CF9108958B
:101260008FEF9FEFBC01FACF6530710581059105C5
:10127000C0F42BE5269FF001279FF00D1124E955BE
:10128000FE4F20813181232B61F022E020831182E7
:10129000409108045091090422815CDD04D081E072
:1012A00008958FEF0895CF92DF92EF92FF92809191
:1012B0000A0490910B04A0910C04B0910D0418162F
:1012C00019061A061B0644F481E080930E04FF9071
:1012D000EF90DF90CF900895C0906101D0906201AF
:1012E000E0906301F09064018BE58C9DF0018D9D91
:1012F000F00D1124E955FE4F80819181019719F578
:1013000040910804509109042281338186E0849F32
:10131000D001859FB00D1124AE58BC4F12966D912F
:101320007D91869FD001879FB00D1124AE58BC4F90
:101330008D919D918217930750F282E080831182F4
:10134000B601C70107DD809108049091090464DFAC
:1013500060936101709362018093630190936401D3
:101360002BE5269FD001279FB00D1124FD01E955E3
:10137000FE4F41E04083118240934F011092500193
:101380001092510110925201BD0165557E4F2C9D66
:10139000C0012D9D900D112485559E4F0E946A011C
:1013A00096CF613071058105910531F0009770404D
:1013B000624001F18FEF089580910A0490910B042F
:1013C000A0910C04B0910D04AC01BD014F5F5F4FC3
:1013D0006F4F7F4F40930A0450930B0460930C04AB
:1013E00070930D04892B8A2B8B2B11F410920E0411
:1013F00081E0089580910A0490910B04A0910C045F
:10140000B0910D04181619061A061B069CF60197D2
:10141000A109B10980930A0490930B04A0930C04D2
:10142000B0930D04892B8A2B8B2B11F780910E041E
:101430008115F1F238DFDCCFA7E0B0E0E1E2FAE0BD
:10144000A8C569837A838B839C83E3DC8D83898140
:101450009A81AB81BC810597A105B10570F48BE53C
:10146000A981BA818A9FF0018B9FF00D1124E95563
:10147000FE4F80819181059759F08D81CDDC2FEF52
:101480003FEF2E833F838E819F812796E2E09DC5AB
:10149000828193818E839F8369817A818B819C81F4
:1014A000E3DE8D81B9DCEFCFCF92DF92EF92FF9236
:1014B000CF93DF936B017C01ACDCF7FE0BC0ACDC9F
:1014C000CFEFDFEFCE01DF91CF91FF90EF90DF9074
:1014D000CF900895C0910F04D091100440E050E0E7
:1014E00097E09E012F5F3F4F2830310514F020E038
:1014F00030E09C9FF0019D9FF00D1124E159FE4FBB
:101500006081611111C020930F043093100491E0A9
:101510009083CF3FDC0799F2C182D282E382F482CA
:101520007BDCD0CFE901DDCF4F5F5F4F4830510505
:10153000C9F720930F0430931004C1CFA9E0B0E0A5
:10154000E3EAFAE026C569837A838B839C832E8342
:101550003F83488759875DDC8D8329813A814B81A0
:101560005C81253031054105510590F48BE5829F62
:10157000F001839FF00D1124E955FE4F8081918188
:10158000009731F0DF01A05BBF4F2C91211531F0A6
:101590008D8142DC8FEF2996E2E017C5E45BFF4FB7
:1015A0002E813F814885598520833183428353832F
:1015B00021E02C938330910549F469817A818B81F4
:1015C0009C8152DE8D8128DC81E0E5CF0797D1F741
:1015D00069817A818B819C8138D0EFCFA3E0B0E024
:1015E000E3EFFAE0D6C48A839B8313DC89832A81E4
:1015F0003B812830310558F487E0829FF001839FBA
:10160000F00D1124E159FE4F8081811106C08981BE
:1016100003DC8FEF2396E2E0D8C481819281A3811D
:10162000B481AC01BD014F5F5F4F6F4F7F4F41836E
:10163000528363837483B7FF04C085819681ECDD98
:1016400013DE8981E9DB81E0E5CFCF92DF92EF9273
:10165000FF92CF93DF930F92CDB7DEB76B017C0182
:10166000D8DB898385E0C816D104E104F10488F44D
:101670008BE58C9DF0018D9DF00D1124E955FE4FF9
:1016800080819181009729F08430910569F0079756
:1016900059F08981C1DB8FEF0F90DF91CF91FF90DF
:1016A000EF90DF90CF90089526E02C9DD0012D9DE6
:1016B000B00D1124AE58BC4F12968D919D91149788
:1016C000853091057CF4289FF001299FF00D1124AD
:1016D000EE58FC4F808191812D913D91820F931F97
:1016E00080839183B601C7019FD9898195DB81E011
:1016F000D3CFD0D99ACBA3E0B0E0E0E8FBE049C477
:101700008A839B8386DB89832A813B81283031054C
:1017100058F487E0829FF001839FF00D1124E15976
:10172000FE4F8081811106C0898176DB8FEF239681
:10173000E2E04BC481819281A381B4810197A10928
:10174000B10981839283A383B483B7FF1DC06091E5
:1017500061017091620180916301909164012BE5B8
:10176000269FD001279FB00D1124A955BE4F26E01A
:101770002D931D92AC5BBF4F2A813B812D933D93EE
:101780004581568105DD8FDD898146DB81E0CFCF44
:10179000CF9361E070E080E090E003DEC6E08091EE
:1017A000530190915401C89FF001C99FF00D11247D
:1017B000EE58FC4F22813381253031053CF062E048
:1017C00070E080E090E0EDDDCF910895C29FF001E0
:1017D000C39FF00D1124EE58FC4F20813181232B43
:1017E00071F71ADD41DDDBCF83EB91E001D018CB3F
:1017F0000895A4E0B0E0EEEFFBE0C7C39C0149838D
:101800005A836B837C8380E090E0BC01E980FA809E
:101810000B811C816E157F058007910734F08FEFD7
:101820009FEFBC012496E6E0CCC3F9016F5F7F4FC8
:101830008F4F9F4F21912115A9F39F01E7CFA5E07D
:10184000B0E0E4E2FCE09BC38C839D8369837A83F0
:1018500069017A01DEDA8B8340E150E060E070E0FC
:101860008C819D81C6DF4B015C012FEF82169804AD
:10187000A804B804F9F041E050E060E070E089812C
:101880009A81B7DF6F3F7F4F8F4F9F4F99F0B3E043
:10189000CB16D104E104F10468F440911104509195
:1018A00012046091130470911404443051056105D1
:1018B000710534F08B81B0DA8FEF2596ECE07BC3B5
:1018C00085E1849FF001859FF00D1124EB5EFB4FB5
:1018D00020E030E08901AC81BD818D91AC83BD8376
:1018E00081930F5F1F4F2F4F3F4F081519052A0592
:1018F0003B058CF3E981FA81808195E1949FF001A9
:10190000959FF00D1124EB5EFB4F808BC18AD28A2C
:10191000E38AF48A4F5F5F4F6F4F7F4F409311040C
:101920005093120460931304709314048B8174DA3F
:1019300081E0C3CFA2E2B0E0EFE9FCE020C386E0A3
:10194000E9E3F1E0DE015B9601900D928A95E1F703
:1019500010921104109212041092130410921404A5
:101960008BE491E045DFE12CF12C6E0121E1C20E08
:10197000D11CCE01019660E070E0AB019E01255EB6
:101980003F4F89A39AA38C01F901E0812F5F3F4F5C
:10199000DC01EC9301964A015B014F5F5F4F6F4F93
:1019A0007F4FE111F0CF4AE050E0B70168527F4F1E
:1019B000C6014CD3C6012FEF821A920AA20AB20ABC
:1019C000A0E18A169104A104B1046CF181E791E0D1
:1019D000B0E18B169104A104B10481F4F701E05346
:1019E000FF4F25913591459155916DE271E089A1A7
:1019F0009AA125DF8F3F19F486E991E0F9DEB9E27B
:101A0000EB0EF11C2BE7E216F10409F0B2CF4FEF19
:101A10005FEF9A016DE271E089E391E010DF81E010
:101A2000A296ECE0C8C2FC0181919FEB980F9A311D
:101A300008F4805ED8018D93811581F2CF018D016C
:101A4000BACFA5E0B0E0E6E2FDE093C289838B0166
:101A50004091110450911204609113047091140488
:101A600025E134E0412C512C62017201C416D506E7
:101A7000E606F70634F08FEF9FEFBC012596E2E112
:101A800094C2E981F92FD901A12CB12C45011F0184
:101A90007C90711056C040E150E060E070E08981B8
:101AA000A8DE6983C2018B5D9B4F8A839B8340E1E3
:101AB00050E060E070E09DDE2B013C01CB01D301E2
:101AC0000197A109B109E9814E2FEE0F550B652F42
:101AD000752F481959096A097B094C015D01840E6B
:101AE000951EA61EB71EF1E18F169104A104B10444
:101AF0000CF0C1CF420153010C831D83F1E08F1A1A
:101B00009108A108B10809F092F5FC01141415041C
:101B10001604170414F0E0E0F0E0E00FF11F1416D3
:101B200015061606170674F185E18C9DF0018D9D52
:101B3000F00D1124EB5EFB4F6189728983899489D2
:101B40009DCF6080671008C0319611968FEF881A7C
:101B5000980AA80AB80A9BCFEFEFCE1ADE0AEE0A5F
:101B6000FE0AF5E14F0E511C2B5E3F4F7FCFEA81FD
:101B7000FB812191EA83FB83EC81FD812193EC833E
:101B8000FD83BCCFD1018D918193415051096109F1
:101B900071091D01C4CF1F93FB01DC0180E090E0BF
:101BA000BC0162177307840795071CF08FEF1F9124
:101BB000089510811C93111539F0319611966F5FBD
:101BC0007F4F8F4F9F4FEDCF81E0F1CFCF92DF92CC
:101BD000EF92FF92CF93DF93CDB7DEB768970FB642
:101BE000F894DEBF0FBECDBF6A8B7B8B2C8B3D8BF9
:101BF0004E8B5F8B20E130E040E050E0BC017E0185
:101C00008FEFE81AF80AC701C6DFE88EF98AE12CDF
:101C1000F12C67018F3FE1F48FEF68960FB6F894CF
:101C2000DEBF0FBECDBFDF91CF91FF90EF90DF9071
:101C3000CF90089520E130E040E050E06A897B8950
:101C4000888D9989A8DF3FEFC31AD30AE30AF30A04
:101C50008091110490911204A0911304B091140486
:101C6000C816D906EA06FB06BCF66A897B89888D08
:101C70009989E7DE2C893D894E895F896217730750
:101C800084079507B9F2862FC8CFA2E1B0E0EAE455
:101C9000FEE07FC1FC01CB01498B5A8B2591359128
:101CA00045915591BE016F5F7F4F90DF282F682FC0
:101CB000880F770B872F972F2F3F49F029893A8973
:101CC000AE014F5F5F4F27DA6296E2E07EC18FEF91
:101CD000FBCF6AE070E080E090E0E6DB80936B048D
:101CE00090936C0480E090E0BC01DEDB809369049B
:101CF00090936A04109281041092820410928304DB
:101D0000109284040895A2E0B0E0E8E8FEE041C14A
:101D100089839A8380916B0490916C04ECDC8091B0
:101D2000830490918404FC01EE0FFF1FE359FB4FE5
:101D300029813A812083318301966AE070E0EAD0FC
:101D400080938304909384048091690490916A0441
:101D500045DC2296E2E039C1A2E0B0E0E1EBFEE032
:101D600018C18091690490916A04C5DC8091810456
:101D700090918204FC01EE0FFF1FE359FB4F20817D
:101D8000318129833A8301966AE070E0C3D0809361
:101D900081049093820480916B0490916C041EDC0A
:101DA00089819A812296E2E010C1CF93DF93C0E04F
:101DB000D0E0CE01A8DF2196CF3087E2D807C9F75F
:101DC000DF91CF910895CF93DF93CFE0D7E2C4DFC7
:101DD00064E070E05CD08FE391E049D02197B9F7DF
:101DE000DF91CF91089575DF2DD01F921F9282E46D
:101DF00091E09F938F931F92D4E1DF93C1E0CF9343
:101E00001F9285ED9EE09F938F930E94170314DB32
:101E10001F921F9286E491E09F938F931F92DF930E
:101E2000CF931F9283EE9EE09F938F930E941703A0
:101E300003DB8DB79EB744960FB6F8949EBF0FBED6
:101E40008DBFFFCFE0910801F0910901158287E66F
:101E5000848386E0828388E181830895E09108018C
:101E6000F0910901908195FFFDCF86830895CF936E
:101E7000DF93EC018881811107C08DE0EFDF8AE0FC
:101E8000EDDFDF91CF9108952196E8DFF3CFA2E057
:101E9000B0E0ECE4FFE075C09C01FB018DB79EB79C
:101EA00089839A838B01ADB7BEB7A61BB70B0FB65C
:101EB000F894BEBF0FBEADBF8DB79EB701966C0143
:101EC0005C01E12CF12CEE16FF066CF001501109BB
:101ED000DAF489819A810FB6F8949EBF0FBE8DBF48
:101EE0002296EAE06AC080E31216130634F4C901B0
:101EF0006AE070E00FD0805D9B01D5018D935D019C
:101F0000BFEFEB1AFB0ADFCFF601E00FF11F808174
:101F1000A5DFDCCF97FB072E16F4009406D077FDE3
:101F200008D05ED007FC05D03EF4909581959F4F78
:101F30000895709561957F4F0895052E97FB16F4CF
:101F400000940FD057FD05D05FD007FC02D046F4B7
:101F500008C050954095309521953F4F4F4F5F4FAA
:101F6000089590958095709561957F4F8F4F9F4F05
:101F700008952F923F924F925F926F927F928F922D
:101F80009F92AF92BF92CF92DF92EF92FF920F9308
:101F90001F93CF93DF93CDB7DEB7CA1BDB0B0FB612
:101FA000F894DEBF0FBECDBF09942A8839884888CF
:101FB0005F846E847D848C849B84AA84B984C88465
:101FC000DF80EE80FD800C811B81AA81B981CE0F5C
:101FD000D11D0FB6F894DEBF0FBECDBFED01089541
:101FE000AA1BBB1B51E107C0AA1FBB1FA617B7073F
:101FF00010F0A61BB70B881F991F5A95A9F780955B
:102000009095BC01CD010895A1E21A2EAA1BBB1B1D
:10201000FD010DC0AA1FBB1FEE1FFF1FA217B307B4
:10202000E407F50720F0A21BB30BE40BF50B661FCA
:10203000771F881F991F1A9469F76095709580958E
:1020400090959B01AC01BD01CF010895FB01DC011E
:102050004150504048F005900D920020C9F701C052
:102060001D9241505040E0F70895DC0101C06D938E
:1020700041505040E0F70895AEE0B0E0E1E4F0E117
:1020800086CF8C01CA0146E04C8309831A83FB0189
:102090006130704810F0E0E0F0E83197ED83FE83A6
:1020A000A901BC01CE01019611D04D815E8157FD81
:1020B0000AC02F813885421753070CF49A01020F8A
:1020C000131FF80110822E96E4E07DCFABE0B0E064
:1020D000EBE6F0E151CF6C017B018A01FC01168235
:1020E0001782838181FFD0C13AE0532EF60123810C
:1020F000F70123FD859123FF81917F01811509F46B
:102100002EC1853239F423FD959123FF91917F01F2
:10211000953221F4B60190E0D0D1E8CF30E0912C97
:10212000612C712CF0E27F1640F59B32D9F058F407
:102130009032D1F09332F1F09E3291F576FC0FC1DE
:10214000689476F806C09D3291F09033C1F468949B
:1021500070F8F70123FD959123FF91917F01911173
:10216000E1CF28C0689471F8689472F8F2CF68944F
:1021700073F8EFCF689474F8ECCF77FC1BC080ED58
:10218000890F8A30C8F676FE05C0959C800D112413
:10219000982EDFCF659C800D1124682E7F2AD9CF21
:1021A0009C3619F4689477F8D4CF9C3409F443C072
:1021B000983679F2892F8F7D8554833008F43DC09D
:1021C000933609F45EC0933709F468C0933509F477
:1021D00073C0943619F0993609F09DC0F80177FE66
:1021E00093C061917191819191918F01272D2F76EB
:1021F000822E97FF03C0B5DE689487F82AE030E0AE
:102200005E014FEFA41AB40AA50187D1782E7A187F
:1022100086FEC8C0882D8E7F791408F0C2C084FE67
:1022200013C182FC07C12EEE8222B92C882D86783C
:1022300009F4C4C004C131E08CCF3115F9F0085F56
:102240001F4F8FE3898321E0822E912C5E012FEFB7
:10225000A21AB20AE89477F873FC03C086149104BA
:10226000D8F18114910409F03DC0611409F43ECF06
:10227000B60180E290E021D16A94F7CF0C5F1F4F46
:10228000E0CFF801808189830E5F1F4F91E0892E96
:10229000912C5E01FFEFAF1ABF0ADCCFF801A190CD
:1022A000B1908F01692D70E076FC02C06FEF7FEF77
:1022B000C501F8D04C01CECFF801A190B1908F01AB
:1022C000692D70E076FC02C06FEF7FEFC501DFD0B3
:1022D0004C01689477F8C0CFB60180E290E0EDD071
:1022E0006A94BCCFF50177FC859177FE81915F01FF
:1022F000B60190E0E2D081E0611001C080E0681A90
:10230000F1E08F1A9108ADCF61917191872F880FFD
:10231000880B982F6ACF9537C1F4872CE89484F8FE
:102320002AE030E0F80187FE37C061917191819118
:1023300091918F015E01FFEFAF1ABF0AA501EDD0A9
:10234000782E7A18E89487F863CF872D897F882EB6
:10235000903791F050F49835A1F09F36D1F0F60106
:10236000868197812B96EFE023CE9837C1F774FCD6
:1023700005C020E130E0D6CF689484F8689482F8F4
:10238000F8CF74FE03C0E72DE6608E2E20E132E028
:10239000C9CF28E030E0C6CF6191719180E090E034
:1023A000C8CF882EB72C84FE41CFFE01E70DF11D6A
:1023B0008081803309F041C049EE842283FC0EC045
:1023C00080FE4DC0972CB61418F4960C9B18B62CB2
:1023D000862D8B196B1408F480E0B80EB61408F043
:1023E00040C06B1884FE3FC0B60180E390E065D02A
:1023F00082FE08C088E590E081FC02C088E790E09A
:10240000B6015BD07914D0F15E018FEFA81AB80A3B
:102410007A9482E0882E912C8C0E9D1E870C911C44
:10242000F40182914F01B60190E047D08A149B04D9
:10243000B9F71BCFB92C882EB8CF82FC02C0B39459
:10244000BDCFB394B394BACFB92C882EEFCEB601DA
:1024500080E290E032D0A394A614C8F3B9CFAB2C9D
:10246000FBCF612CBFCF882D867861F280E281FCA2
:102470008BE287FC8DE2B60190E0C3CFB60180E32A
:1024800090E01BD09A94BECF8FEF9FEF6BCFFC01F3
:102490000590615070400110D8F7809590958E0F8F
:1024A0009F1F0895FC016150704001900110D8F702
:1024B000809590958E0F9F1F08950F931F93CF9334
:1024C000DF93182F092FEB018B8181FD09C00FEFDE
:1024D0001FEF812F902FDF91CF911F910F910895C2
:1024E00082FF14C02E813F818C819D81281739077E
:1024F0003CF4E881F981CF010196888399831083A8
:102500008E819F8101968E839F83E3CFE885F98535
:10251000812F0995892BA1F3DACFFA01AA27283058
:1025200051F1203181F1E8946F936E7F6E5F7F4FA0
:102530008F4F9F4FAF4FB1E03ED0B4E03CD0670F1C
:10254000781F891F9A1FA11D680F791F8A1F911D6F
:10255000A11D6A0F711D811D911DA11D20D009F4BF
:1025600068943F912AE0269F11243019305D319301
:10257000DEF6CF010895462F4770405D4193B3E0EA
:102580000FD0C9F7F6CF462F4F70405D4A3318F091
:10259000495D31FD4052419302D0A9F7EACFB4E042
:1025A000A6959795879577956795BA95C9F70097FA
:1025B0006105710508959B01AC010A2E069457959B
:1025C000479537952795BA95C9F7620F731F841FF2
:0625D000951FA01D0895F7
:1025D600C0007000B0000500C000201B5B306D1B02
:1025E6005B324A1B5B3B48000A467265654D454DAA
:1025F6003A256420286279746573290A0A006E7583
:102606006C6C70006D61696E002F6465762F000A30
:0A2616000D0070726F00636F6E001C
:00000001FF
